{
  "contractName": "Token",
  "abi": [
    {
      "inputs": [
        {
          "internalType": "string",
          "name": "name",
          "type": "string"
        },
        {
          "internalType": "string",
          "name": "symbol",
          "type": "string"
        }
      ],
      "stateMutability": "nonpayable",
      "type": "constructor"
    },
    {
      "anonymous": false,
      "inputs": [
        {
          "indexed": true,
          "internalType": "address",
          "name": "owner",
          "type": "address"
        },
        {
          "indexed": true,
          "internalType": "address",
          "name": "approved",
          "type": "address"
        },
        {
          "indexed": true,
          "internalType": "uint256",
          "name": "tokenId",
          "type": "uint256"
        }
      ],
      "name": "Approval",
      "type": "event"
    },
    {
      "anonymous": false,
      "inputs": [
        {
          "indexed": true,
          "internalType": "address",
          "name": "owner",
          "type": "address"
        },
        {
          "indexed": true,
          "internalType": "address",
          "name": "operator",
          "type": "address"
        },
        {
          "indexed": false,
          "internalType": "bool",
          "name": "approved",
          "type": "bool"
        }
      ],
      "name": "ApprovalForAll",
      "type": "event"
    },
    {
      "anonymous": false,
      "inputs": [
        {
          "indexed": true,
          "internalType": "address",
          "name": "previousOwner",
          "type": "address"
        },
        {
          "indexed": true,
          "internalType": "address",
          "name": "newOwner",
          "type": "address"
        }
      ],
      "name": "OwnershipTransferred",
      "type": "event"
    },
    {
      "anonymous": false,
      "inputs": [
        {
          "indexed": true,
          "internalType": "address",
          "name": "from",
          "type": "address"
        },
        {
          "indexed": true,
          "internalType": "address",
          "name": "to",
          "type": "address"
        },
        {
          "indexed": true,
          "internalType": "uint256",
          "name": "tokenId",
          "type": "uint256"
        }
      ],
      "name": "Transfer",
      "type": "event"
    },
    {
      "inputs": [
        {
          "internalType": "address",
          "name": "to",
          "type": "address"
        },
        {
          "internalType": "uint256",
          "name": "tokenId",
          "type": "uint256"
        }
      ],
      "name": "approve",
      "outputs": [],
      "stateMutability": "nonpayable",
      "type": "function"
    },
    {
      "inputs": [
        {
          "internalType": "address",
          "name": "owner",
          "type": "address"
        }
      ],
      "name": "balanceOf",
      "outputs": [
        {
          "internalType": "uint256",
          "name": "",
          "type": "uint256"
        }
      ],
      "stateMutability": "view",
      "type": "function",
      "constant": true
    },
    {
      "inputs": [
        {
          "internalType": "uint256",
          "name": "tokenId",
          "type": "uint256"
        }
      ],
      "name": "getApproved",
      "outputs": [
        {
          "internalType": "address",
          "name": "",
          "type": "address"
        }
      ],
      "stateMutability": "view",
      "type": "function",
      "constant": true
    },
    {
      "inputs": [
        {
          "internalType": "address",
          "name": "owner",
          "type": "address"
        },
        {
          "internalType": "address",
          "name": "operator",
          "type": "address"
        }
      ],
      "name": "isApprovedForAll",
      "outputs": [
        {
          "internalType": "bool",
          "name": "",
          "type": "bool"
        }
      ],
      "stateMutability": "view",
      "type": "function",
      "constant": true
    },
    {
      "inputs": [],
      "name": "name",
      "outputs": [
        {
          "internalType": "string",
          "name": "",
          "type": "string"
        }
      ],
      "stateMutability": "view",
      "type": "function",
      "constant": true
    },
    {
      "inputs": [],
      "name": "owner",
      "outputs": [
        {
          "internalType": "address",
          "name": "",
          "type": "address"
        }
      ],
      "stateMutability": "view",
      "type": "function",
      "constant": true
    },
    {
      "inputs": [
        {
          "internalType": "uint256",
          "name": "tokenId",
          "type": "uint256"
        }
      ],
      "name": "ownerOf",
      "outputs": [
        {
          "internalType": "address",
          "name": "",
          "type": "address"
        }
      ],
      "stateMutability": "view",
      "type": "function",
      "constant": true
    },
    {
      "inputs": [],
      "name": "renounceOwnership",
      "outputs": [],
      "stateMutability": "nonpayable",
      "type": "function"
    },
    {
      "inputs": [
        {
          "internalType": "address",
          "name": "from",
          "type": "address"
        },
        {
          "internalType": "address",
          "name": "to",
          "type": "address"
        },
        {
          "internalType": "uint256",
          "name": "tokenId",
          "type": "uint256"
        }
      ],
      "name": "safeTransferFrom",
      "outputs": [],
      "stateMutability": "nonpayable",
      "type": "function"
    },
    {
      "inputs": [
        {
          "internalType": "address",
          "name": "from",
          "type": "address"
        },
        {
          "internalType": "address",
          "name": "to",
          "type": "address"
        },
        {
          "internalType": "uint256",
          "name": "tokenId",
          "type": "uint256"
        },
        {
          "internalType": "bytes",
          "name": "_data",
          "type": "bytes"
        }
      ],
      "name": "safeTransferFrom",
      "outputs": [],
      "stateMutability": "nonpayable",
      "type": "function"
    },
    {
      "inputs": [
        {
          "internalType": "address",
          "name": "operator",
          "type": "address"
        },
        {
          "internalType": "bool",
          "name": "approved",
          "type": "bool"
        }
      ],
      "name": "setApprovalForAll",
      "outputs": [],
      "stateMutability": "nonpayable",
      "type": "function"
    },
    {
      "inputs": [
        {
          "internalType": "bytes4",
          "name": "interfaceId",
          "type": "bytes4"
        }
      ],
      "name": "supportsInterface",
      "outputs": [
        {
          "internalType": "bool",
          "name": "",
          "type": "bool"
        }
      ],
      "stateMutability": "view",
      "type": "function",
      "constant": true
    },
    {
      "inputs": [],
      "name": "symbol",
      "outputs": [
        {
          "internalType": "string",
          "name": "",
          "type": "string"
        }
      ],
      "stateMutability": "view",
      "type": "function",
      "constant": true
    },
    {
      "inputs": [
        {
          "internalType": "uint256",
          "name": "tokenId",
          "type": "uint256"
        }
      ],
      "name": "tokenURI",
      "outputs": [
        {
          "internalType": "string",
          "name": "",
          "type": "string"
        }
      ],
      "stateMutability": "view",
      "type": "function",
      "constant": true
    },
    {
      "inputs": [
        {
          "internalType": "address",
          "name": "from",
          "type": "address"
        },
        {
          "internalType": "address",
          "name": "to",
          "type": "address"
        },
        {
          "internalType": "uint256",
          "name": "tokenId",
          "type": "uint256"
        }
      ],
      "name": "transferFrom",
      "outputs": [],
      "stateMutability": "nonpayable",
      "type": "function"
    },
    {
      "inputs": [
        {
          "internalType": "address",
          "name": "newOwner",
          "type": "address"
        }
      ],
      "name": "transferOwnership",
      "outputs": [],
      "stateMutability": "nonpayable",
      "type": "function"
    },
    {
      "inputs": [
        {
          "internalType": "uint256",
          "name": "tokenId",
          "type": "uint256"
        }
      ],
      "name": "getTokenDetails",
      "outputs": [
        {
          "components": [
            {
              "internalType": "uint256",
              "name": "damage",
              "type": "uint256"
            },
            {
              "internalType": "uint256",
              "name": "magic",
              "type": "uint256"
            },
            {
              "internalType": "uint256",
              "name": "lastMeal",
              "type": "uint256"
            },
            {
              "internalType": "uint256",
              "name": "endurance",
              "type": "uint256"
            }
          ],
          "internalType": "struct Token.Pet",
          "name": "",
          "type": "tuple"
        }
      ],
      "stateMutability": "view",
      "type": "function",
      "constant": true
    },
    {
      "inputs": [
        {
          "internalType": "uint256",
          "name": "damage",
          "type": "uint256"
        },
        {
          "internalType": "uint256",
          "name": "magic",
          "type": "uint256"
        },
        {
          "internalType": "uint256",
          "name": "endurance",
          "type": "uint256"
        }
      ],
      "name": "mint",
      "outputs": [],
      "stateMutability": "nonpayable",
      "type": "function"
    },
    {
      "inputs": [
        {
          "internalType": "uint256",
          "name": "tokenId",
          "type": "uint256"
        }
      ],
      "name": "feed",
      "outputs": [],
      "stateMutability": "nonpayable",
      "type": "function"
    }
  ],
  "bytecode": "0x608060405260006007553480156200001657600080fd5b50604051620032ec380380620032ec83398181016040528101906200003c9190620003b5565b818181600090805190602001906200005692919062000168565b5080600190805190602001906200006f92919062000168565b50505062000092620000866200009a60201b60201c565b620000a260201b60201c565b50506200049e565b600033905090565b6000600660009054906101000a900473ffffffffffffffffffffffffffffffffffffffff16905081600660006101000a81548173ffffffffffffffffffffffffffffffffffffffff021916908373ffffffffffffffffffffffffffffffffffffffff1602179055508173ffffffffffffffffffffffffffffffffffffffff168173ffffffffffffffffffffffffffffffffffffffff167f8be0079c531659141344cd1fd0a4f28419497f9722a3daafe3b4186f6b6457e060405160405180910390a35050565b828054620001769062000469565b90600052602060002090601f0160209004810192826200019a5760008555620001e6565b82601f10620001b557805160ff1916838001178555620001e6565b82800160010185558215620001e6579182015b82811115620001e5578251825591602001919060010190620001c8565b5b509050620001f59190620001f9565b5090565b5b8082111562000214576000816000905550600101620001fa565b5090565b6000604051905090565b600080fd5b600080fd5b600080fd5b600080fd5b6000601f19601f8301169050919050565b7f4e487b7100000000000000000000000000000000000000000000000000000000600052604160045260246000fd5b620002818262000236565b810181811067ffffffffffffffff82111715620002a357620002a262000247565b5b80604052505050565b6000620002b862000218565b9050620002c6828262000276565b919050565b600067ffffffffffffffff821115620002e957620002e862000247565b5b620002f48262000236565b9050602081019050919050565b60005b838110156200032157808201518184015260208101905062000304565b8381111562000331576000848401525b50505050565b60006200034e6200034884620002cb565b620002ac565b9050828152602081018484840111156200036d576200036c62000231565b5b6200037a84828562000301565b509392505050565b600082601f8301126200039a57620003996200022c565b5b8151620003ac84826020860162000337565b91505092915050565b60008060408385031215620003cf57620003ce62000222565b5b600083015167ffffffffffffffff811115620003f057620003ef62000227565b5b620003fe8582860162000382565b925050602083015167ffffffffffffffff81111562000422576200042162000227565b5b620004308582860162000382565b9150509250929050565b7f4e487b7100000000000000000000000000000000000000000000000000000000600052602260045260246000fd5b600060028204905060018216806200048257607f821691505b6020821081036200049857620004976200043a565b5b50919050565b612e3e80620004ae6000396000f3fe608060405234801561001057600080fd5b50600436106101215760003560e01c8063715018a6116100ad578063c1e0372811610071578063c1e03728146102f2578063c87b56dd14610322578063e985e9c514610352578063f2fde38b14610382578063f59dfdfb1461039e57610121565b8063715018a6146102745780638da5cb5b1461027e57806395d89b411461029c578063a22cb465146102ba578063b88d4fde146102d657610121565b8063095ea7b3116100f4578063095ea7b3146101c057806323b872dd146101dc57806342842e0e146101f85780636352211e1461021457806370a082311461024457610121565b806301ffc9a71461012657806302acc94b1461015657806306fdde0314610172578063081812fc14610190575b600080fd5b610140600480360381019061013b9190611bf3565b6103ba565b60405161014d9190611c3b565b60405180910390f35b610170600480360381019061016b9190611c8c565b61049c565b005b61017a6105a2565b6040516101879190611d78565b60405180910390f35b6101aa60048036038101906101a59190611d9a565b610634565b6040516101b79190611e08565b60405180910390f35b6101da60048036038101906101d59190611e4f565b6106b9565b005b6101f660048036038101906101f19190611e8f565b6107d0565b005b610212600480360381019061020d9190611e8f565b610830565b005b61022e60048036038101906102299190611d9a565b610850565b60405161023b9190611e08565b60405180910390f35b61025e60048036038101906102599190611ee2565b610901565b60405161026b9190611f1e565b60405180910390f35b61027c6109b8565b005b610286610a40565b6040516102939190611e08565b60405180910390f35b6102a4610a6a565b6040516102b19190611d78565b60405180910390f35b6102d460048036038101906102cf9190611f65565b610afc565b005b6102f060048036038101906102eb91906120da565b610b12565b005b61030c60048036038101906103079190611d9a565b610b74565b60405161031991906121c1565b60405180910390f35b61033c60048036038101906103379190611d9a565b610bc9565b6040516103499190611d78565b60405180910390f35b61036c600480360381019061036791906121dc565b610c70565b6040516103799190611c3b565b60405180910390f35b61039c60048036038101906103979190611ee2565b610d04565b005b6103b860048036038101906103b39190611d9a565b610dfb565b005b60007f80ac58cd000000000000000000000000000000000000000000000000000000007bffffffffffffffffffffffffffffffffffffffffffffffffffffffff1916827bffffffffffffffffffffffffffffffffffffffffffffffffffffffff1916148061048557507f5b5e139f000000000000000000000000000000000000000000000000000000007bffffffffffffffffffffffffffffffffffffffffffffffffffffffff1916827bffffffffffffffffffffffffffffffffffffffffffffffffffffffff1916145b80610495575061049482610e40565b5b9050919050565b6104a4610eaa565b73ffffffffffffffffffffffffffffffffffffffff166104c2610a40565b73ffffffffffffffffffffffffffffffffffffffff1614610518576040517f08c379a000000000000000000000000000000000000000000000000000000000815260040161050f90612268565b60405180910390fd5b6040518060800160405280848152602001838152602001428152602001828152506008600060075481526020019081526020016000206000820151816000015560208201518160010155604082015181600201556060820151816003015590505061058533600754610eb2565b60076000815480929190610598906122b7565b9190505550505050565b6060600080546105b19061232e565b80601f01602080910402602001604051908101604052809291908181526020018280546105dd9061232e565b801561062a5780601f106105ff5761010080835404028352916020019161062a565b820191906000526020600020905b81548152906001019060200180831161060d57829003601f168201915b5050505050905090565b600061063f82610ed0565b61067e576040517f08c379a0000000000000000000000000000000000000000000000000000000008152600401610675906123d1565b60405180910390fd5b6004600083815260200190815260200160002060009054906101000a900473ffffffffffffffffffffffffffffffffffffffff169050919050565b60006106c482610850565b90508073ffffffffffffffffffffffffffffffffffffffff168373ffffffffffffffffffffffffffffffffffffffff1603610734576040517f08c379a000000000000000000000000000000000000000000000000000000000815260040161072b90612463565b60405180910390fd5b8073ffffffffffffffffffffffffffffffffffffffff16610753610eaa565b73ffffffffffffffffffffffffffffffffffffffff16148061078257506107818161077c610eaa565b610c70565b5b6107c1576040517f08c379a00000000000000000000000000000000000000000000000000000000081526004016107b8906124f5565b60405180910390fd5b6107cb8383610f3c565b505050565b6107e16107db610eaa565b82610ff5565b610820576040517f08c379a000000000000000000000000000000000000000000000000000000000815260040161081790612587565b60405180910390fd5b61082b8383836110d3565b505050565b61084b83838360405180602001604052806000815250610b12565b505050565b6000806002600084815260200190815260200160002060009054906101000a900473ffffffffffffffffffffffffffffffffffffffff169050600073ffffffffffffffffffffffffffffffffffffffff168173ffffffffffffffffffffffffffffffffffffffff16036108f8576040517f08c379a00000000000000000000000000000000000000000000000000000000081526004016108ef90612619565b60405180910390fd5b80915050919050565b60008073ffffffffffffffffffffffffffffffffffffffff168273ffffffffffffffffffffffffffffffffffffffff1603610971576040517f08c379a0000000000000000000000000000000000000000000000000000000008152600401610968906126ab565b60405180910390fd5b600360008373ffffffffffffffffffffffffffffffffffffffff1673ffffffffffffffffffffffffffffffffffffffff168152602001908152602001600020549050919050565b6109c0610eaa565b73ffffffffffffffffffffffffffffffffffffffff166109de610a40565b73ffffffffffffffffffffffffffffffffffffffff1614610a34576040517f08c379a0000000000000000000000000000000000000000000000000000000008152600401610a2b90612268565b60405180910390fd5b610a3e6000611339565b565b6000600660009054906101000a900473ffffffffffffffffffffffffffffffffffffffff16905090565b606060018054610a799061232e565b80601f0160208091040260200160405190810160405280929190818152602001828054610aa59061232e565b8015610af25780601f10610ac757610100808354040283529160200191610af2565b820191906000526020600020905b815481529060010190602001808311610ad557829003601f168201915b5050505050905090565b610b0e610b07610eaa565b83836113ff565b5050565b610b23610b1d610eaa565b83610ff5565b610b62576040517f08c379a0000000000000000000000000000000000000000000000000000000008152600401610b5990612587565b60405180910390fd5b610b6e8484848461156b565b50505050565b610b7c611b5f565b600860008381526020019081526020016000206040518060800160405290816000820154815260200160018201548152602001600282015481526020016003820154815250509050919050565b6060610bd482610ed0565b610c13576040517f08c379a0000000000000000000000000000000000000000000000000000000008152600401610c0a9061273d565b60405180910390fd5b6000610c1d6115c7565b90506000815111610c3d5760405180602001604052806000815250610c68565b80610c47846115de565b604051602001610c58929190612799565b6040516020818303038152906040525b915050919050565b6000600560008473ffffffffffffffffffffffffffffffffffffffff1673ffffffffffffffffffffffffffffffffffffffff16815260200190815260200160002060008373ffffffffffffffffffffffffffffffffffffffff1673ffffffffffffffffffffffffffffffffffffffff16815260200190815260200160002060009054906101000a900460ff16905092915050565b610d0c610eaa565b73ffffffffffffffffffffffffffffffffffffffff16610d2a610a40565b73ffffffffffffffffffffffffffffffffffffffff1614610d80576040517f08c379a0000000000000000000000000000000000000000000000000000000008152600401610d7790612268565b60405180910390fd5b600073ffffffffffffffffffffffffffffffffffffffff168173ffffffffffffffffffffffffffffffffffffffff1603610def576040517f08c379a0000000000000000000000000000000000000000000000000000000008152600401610de69061282f565b60405180910390fd5b610df881611339565b50565b600060086000600754815260200190815260200160002090504281600301548260020154610e29919061284f565b11610e3357600080fd5b4281600201819055505050565b60007f01ffc9a7000000000000000000000000000000000000000000000000000000007bffffffffffffffffffffffffffffffffffffffffffffffffffffffff1916827bffffffffffffffffffffffffffffffffffffffffffffffffffffffff1916149050919050565b600033905090565b610ecc82826040518060200160405280600081525061173e565b5050565b60008073ffffffffffffffffffffffffffffffffffffffff166002600084815260200190815260200160002060009054906101000a900473ffffffffffffffffffffffffffffffffffffffff1673ffffffffffffffffffffffffffffffffffffffff1614159050919050565b816004600083815260200190815260200160002060006101000a81548173ffffffffffffffffffffffffffffffffffffffff021916908373ffffffffffffffffffffffffffffffffffffffff160217905550808273ffffffffffffffffffffffffffffffffffffffff16610faf83610850565b73ffffffffffffffffffffffffffffffffffffffff167f8c5be1e5ebec7d5bd14f71427d1e84f3dd0314c0f7b2291e5b200ac8c7c3b92560405160405180910390a45050565b600061100082610ed0565b61103f576040517f08c379a000000000000000000000000000000000000000000000000000000000815260040161103690612917565b60405180910390fd5b600061104a83610850565b90508073ffffffffffffffffffffffffffffffffffffffff168473ffffffffffffffffffffffffffffffffffffffff16148061108c575061108b8185610c70565b5b806110ca57508373ffffffffffffffffffffffffffffffffffffffff166110b284610634565b73ffffffffffffffffffffffffffffffffffffffff16145b91505092915050565b8273ffffffffffffffffffffffffffffffffffffffff166110f382610850565b73ffffffffffffffffffffffffffffffffffffffff1614611149576040517f08c379a0000000000000000000000000000000000000000000000000000000008152600401611140906129a9565b60405180910390fd5b600073ffffffffffffffffffffffffffffffffffffffff168273ffffffffffffffffffffffffffffffffffffffff16036111b8576040517f08c379a00000000000000000000000000000000000000000000000000000000081526004016111af90612a3b565b60405180910390fd5b6111c3838383611799565b6111ce600082610f3c565b6001600360008573ffffffffffffffffffffffffffffffffffffffff1673ffffffffffffffffffffffffffffffffffffffff168152602001908152602001600020600082825461121e9190612a5b565b925050819055506001600360008473ffffffffffffffffffffffffffffffffffffffff1673ffffffffffffffffffffffffffffffffffffffff1681526020019081526020016000206000828254611275919061284f565b92505081905550816002600083815260200190815260200160002060006101000a81548173ffffffffffffffffffffffffffffffffffffffff021916908373ffffffffffffffffffffffffffffffffffffffff160217905550808273ffffffffffffffffffffffffffffffffffffffff168473ffffffffffffffffffffffffffffffffffffffff167fddf252ad1be2c89b69c2b068fc378daa952ba7f163c4a11628f55a4df523b3ef60405160405180910390a46113348383836117d7565b505050565b6000600660009054906101000a900473ffffffffffffffffffffffffffffffffffffffff16905081600660006101000a81548173ffffffffffffffffffffffffffffffffffffffff021916908373ffffffffffffffffffffffffffffffffffffffff1602179055508173ffffffffffffffffffffffffffffffffffffffff168173ffffffffffffffffffffffffffffffffffffffff167f8be0079c531659141344cd1fd0a4f28419497f9722a3daafe3b4186f6b6457e060405160405180910390a35050565b8173ffffffffffffffffffffffffffffffffffffffff168373ffffffffffffffffffffffffffffffffffffffff160361146d576040517f08c379a000000000000000000000000000000000000000000000000000000000815260040161146490612adb565b60405180910390fd5b80600560008573ffffffffffffffffffffffffffffffffffffffff1673ffffffffffffffffffffffffffffffffffffffff16815260200190815260200160002060008473ffffffffffffffffffffffffffffffffffffffff1673ffffffffffffffffffffffffffffffffffffffff16815260200190815260200160002060006101000a81548160ff0219169083151502179055508173ffffffffffffffffffffffffffffffffffffffff168373ffffffffffffffffffffffffffffffffffffffff167f17307eab39ab6107e8899845ad3d59bd9653f200f220920489ca2b5937696c318360405161155e9190611c3b565b60405180910390a3505050565b6115768484846110d3565b611582848484846117dc565b6115c1576040517f08c379a00000000000000000000000000000000000000000000000000000000081526004016115b890612b6d565b60405180910390fd5b50505050565b606060405180602001604052806000815250905090565b606060008203611625576040518060400160405280600181526020017f30000000000000000000000000000000000000000000000000000000000000008152509050611739565b600082905060005b60008214611657578080611640906122b7565b915050600a826116509190612bbc565b915061162d565b60008167ffffffffffffffff81111561167357611672611faf565b5b6040519080825280601f01601f1916602001820160405280156116a55781602001600182028036833780820191505090505b5090505b60008514611732576001826116be9190612a5b565b9150600a856116cd9190612bed565b60306116d9919061284f565b60f81b8183815181106116ef576116ee612c1e565b5b60200101907effffffffffffffffffffffffffffffffffffffffffffffffffffffffffffff1916908160001a905350600a8561172b9190612bbc565b94506116a9565b8093505050505b919050565b6117488383611963565b61175560008484846117dc565b611794576040517f08c379a000000000000000000000000000000000000000000000000000000000815260040161178b90612b6d565b60405180910390fd5b505050565b6000600860006007548152602001908152602001600020905042816003015482600201546117c7919061284f565b116117d157600080fd5b50505050565b505050565b60006117fd8473ffffffffffffffffffffffffffffffffffffffff16611b3c565b15611956578373ffffffffffffffffffffffffffffffffffffffff1663150b7a02611826610eaa565b8786866040518563ffffffff1660e01b81526004016118489493929190612ca2565b6020604051808303816000875af192505050801561188457506040513d601f19601f820116820180604052508101906118819190612d03565b60015b611906573d80600081146118b4576040519150601f19603f3d011682016040523d82523d6000602084013e6118b9565b606091505b5060008151036118fe576040517f08c379a00000000000000000000000000000000000000000000000000000000081526004016118f590612b6d565b60405180910390fd5b805181602001fd5b63150b7a0260e01b7bffffffffffffffffffffffffffffffffffffffffffffffffffffffff1916817bffffffffffffffffffffffffffffffffffffffffffffffffffffffff19161491505061195b565b600190505b949350505050565b600073ffffffffffffffffffffffffffffffffffffffff168273ffffffffffffffffffffffffffffffffffffffff16036119d2576040517f08c379a00000000000000000000000000000000000000000000000000000000081526004016119c990612d7c565b60405180910390fd5b6119db81610ed0565b15611a1b576040517f08c379a0000000000000000000000000000000000000000000000000000000008152600401611a1290612de8565b60405180910390fd5b611a2760008383611799565b6001600360008473ffffffffffffffffffffffffffffffffffffffff1673ffffffffffffffffffffffffffffffffffffffff1681526020019081526020016000206000828254611a77919061284f565b92505081905550816002600083815260200190815260200160002060006101000a81548173ffffffffffffffffffffffffffffffffffffffff021916908373ffffffffffffffffffffffffffffffffffffffff160217905550808273ffffffffffffffffffffffffffffffffffffffff16600073ffffffffffffffffffffffffffffffffffffffff167fddf252ad1be2c89b69c2b068fc378daa952ba7f163c4a11628f55a4df523b3ef60405160405180910390a4611b38600083836117d7565b5050565b6000808273ffffffffffffffffffffffffffffffffffffffff163b119050919050565b6040518060800160405280600081526020016000815260200160008152602001600081525090565b6000604051905090565b600080fd5b600080fd5b60007fffffffff0000000000000000000000000000000000000000000000000000000082169050919050565b611bd081611b9b565b8114611bdb57600080fd5b50565b600081359050611bed81611bc7565b92915050565b600060208284031215611c0957611c08611b91565b5b6000611c1784828501611bde565b91505092915050565b60008115159050919050565b611c3581611c20565b82525050565b6000602082019050611c506000830184611c2c565b92915050565b6000819050919050565b611c6981611c56565b8114611c7457600080fd5b50565b600081359050611c8681611c60565b92915050565b600080600060608486031215611ca557611ca4611b91565b5b6000611cb386828701611c77565b9350506020611cc486828701611c77565b9250506040611cd586828701611c77565b9150509250925092565b600081519050919050565b600082825260208201905092915050565b60005b83811015611d19578082015181840152602081019050611cfe565b83811115611d28576000848401525b50505050565b6000601f19601f8301169050919050565b6000611d4a82611cdf565b611d548185611cea565b9350611d64818560208601611cfb565b611d6d81611d2e565b840191505092915050565b60006020820190508181036000830152611d928184611d3f565b905092915050565b600060208284031215611db057611daf611b91565b5b6000611dbe84828501611c77565b91505092915050565b600073ffffffffffffffffffffffffffffffffffffffff82169050919050565b6000611df282611dc7565b9050919050565b611e0281611de7565b82525050565b6000602082019050611e1d6000830184611df9565b92915050565b611e2c81611de7565b8114611e3757600080fd5b50565b600081359050611e4981611e23565b92915050565b60008060408385031215611e6657611e65611b91565b5b6000611e7485828601611e3a565b9250506020611e8585828601611c77565b9150509250929050565b600080600060608486031215611ea857611ea7611b91565b5b6000611eb686828701611e3a565b9350506020611ec786828701611e3a565b9250506040611ed886828701611c77565b9150509250925092565b600060208284031215611ef857611ef7611b91565b5b6000611f0684828501611e3a565b91505092915050565b611f1881611c56565b82525050565b6000602082019050611f336000830184611f0f565b92915050565b611f4281611c20565b8114611f4d57600080fd5b50565b600081359050611f5f81611f39565b92915050565b60008060408385031215611f7c57611f7b611b91565b5b6000611f8a85828601611e3a565b9250506020611f9b85828601611f50565b9150509250929050565b600080fd5b600080fd5b7f4e487b7100000000000000000000000000000000000000000000000000000000600052604160045260246000fd5b611fe782611d2e565b810181811067ffffffffffffffff8211171561200657612005611faf565b5b80604052505050565b6000612019611b87565b90506120258282611fde565b919050565b600067ffffffffffffffff82111561204557612044611faf565b5b61204e82611d2e565b9050602081019050919050565b82818337600083830152505050565b600061207d6120788461202a565b61200f565b90508281526020810184848401111561209957612098611faa565b5b6120a484828561205b565b509392505050565b600082601f8301126120c1576120c0611fa5565b5b81356120d184826020860161206a565b91505092915050565b600080600080608085870312156120f4576120f3611b91565b5b600061210287828801611e3a565b945050602061211387828801611e3a565b935050604061212487828801611c77565b925050606085013567ffffffffffffffff81111561214557612144611b96565b5b612151878288016120ac565b91505092959194509250565b61216681611c56565b82525050565b608082016000820151612182600085018261215d565b506020820151612195602085018261215d565b5060408201516121a8604085018261215d565b5060608201516121bb606085018261215d565b50505050565b60006080820190506121d6600083018461216c565b92915050565b600080604083850312156121f3576121f2611b91565b5b600061220185828601611e3a565b925050602061221285828601611e3a565b9150509250929050565b7f4f776e61626c653a2063616c6c6572206973206e6f7420746865206f776e6572600082015250565b6000612252602083611cea565b915061225d8261221c565b602082019050919050565b6000602082019050818103600083015261228181612245565b9050919050565b7f4e487b7100000000000000000000000000000000000000000000000000000000600052601160045260246000fd5b60006122c282611c56565b91507fffffffffffffffffffffffffffffffffffffffffffffffffffffffffffffffff82036122f4576122f3612288565b5b600182019050919050565b7f4e487b7100000000000000000000000000000000000000000000000000000000600052602260045260246000fd5b6000600282049050600182168061234657607f821691505b602082108103612359576123586122ff565b5b50919050565b7f4552433732313a20617070726f76656420717565727920666f72206e6f6e657860008201527f697374656e7420746f6b656e0000000000000000000000000000000000000000602082015250565b60006123bb602c83611cea565b91506123c68261235f565b604082019050919050565b600060208201905081810360008301526123ea816123ae565b9050919050565b7f4552433732313a20617070726f76616c20746f2063757272656e74206f776e6560008201527f7200000000000000000000000000000000000000000000000000000000000000602082015250565b600061244d602183611cea565b9150612458826123f1565b604082019050919050565b6000602082019050818103600083015261247c81612440565b9050919050565b7f4552433732313a20617070726f76652063616c6c6572206973206e6f74206f7760008201527f6e6572206e6f7220617070726f76656420666f7220616c6c0000000000000000602082015250565b60006124df603883611cea565b91506124ea82612483565b604082019050919050565b6000602082019050818103600083015261250e816124d2565b9050919050565b7f4552433732313a207472616e736665722063616c6c6572206973206e6f74206f60008201527f776e6572206e6f7220617070726f766564000000000000000000000000000000602082015250565b6000612571603183611cea565b915061257c82612515565b604082019050919050565b600060208201905081810360008301526125a081612564565b9050919050565b7f4552433732313a206f776e657220717565727920666f72206e6f6e657869737460008201527f656e7420746f6b656e0000000000000000000000000000000000000000000000602082015250565b6000612603602983611cea565b915061260e826125a7565b604082019050919050565b60006020820190508181036000830152612632816125f6565b9050919050565b7f4552433732313a2062616c616e636520717565727920666f7220746865207a6560008201527f726f206164647265737300000000000000000000000000000000000000000000602082015250565b6000612695602a83611cea565b91506126a082612639565b604082019050919050565b600060208201905081810360008301526126c481612688565b9050919050565b7f4552433732314d657461646174613a2055524920717565727920666f72206e6f60008201527f6e6578697374656e7420746f6b656e0000000000000000000000000000000000602082015250565b6000612727602f83611cea565b9150612732826126cb565b604082019050919050565b600060208201905081810360008301526127568161271a565b9050919050565b600081905092915050565b600061277382611cdf565b61277d818561275d565b935061278d818560208601611cfb565b80840191505092915050565b60006127a58285612768565b91506127b18284612768565b91508190509392505050565b7f4f776e61626c653a206e6577206f776e657220697320746865207a65726f206160008201527f6464726573730000000000000000000000000000000000000000000000000000602082015250565b6000612819602683611cea565b9150612824826127bd565b604082019050919050565b600060208201905081810360008301526128488161280c565b9050919050565b600061285a82611c56565b915061286583611c56565b9250827fffffffffffffffffffffffffffffffffffffffffffffffffffffffffffffffff0382111561289a57612899612288565b5b828201905092915050565b7f4552433732313a206f70657261746f7220717565727920666f72206e6f6e657860008201527f697374656e7420746f6b656e0000000000000000000000000000000000000000602082015250565b6000612901602c83611cea565b915061290c826128a5565b604082019050919050565b60006020820190508181036000830152612930816128f4565b9050919050565b7f4552433732313a207472616e736665722066726f6d20696e636f72726563742060008201527f6f776e6572000000000000000000000000000000000000000000000000000000602082015250565b6000612993602583611cea565b915061299e82612937565b604082019050919050565b600060208201905081810360008301526129c281612986565b9050919050565b7f4552433732313a207472616e7366657220746f20746865207a65726f2061646460008201527f7265737300000000000000000000000000000000000000000000000000000000602082015250565b6000612a25602483611cea565b9150612a30826129c9565b604082019050919050565b60006020820190508181036000830152612a5481612a18565b9050919050565b6000612a6682611c56565b9150612a7183611c56565b925082821015612a8457612a83612288565b5b828203905092915050565b7f4552433732313a20617070726f766520746f2063616c6c657200000000000000600082015250565b6000612ac5601983611cea565b9150612ad082612a8f565b602082019050919050565b60006020820190508181036000830152612af481612ab8565b9050919050565b7f4552433732313a207472616e7366657220746f206e6f6e20455243373231526560008201527f63656976657220696d706c656d656e7465720000000000000000000000000000602082015250565b6000612b57603283611cea565b9150612b6282612afb565b604082019050919050565b60006020820190508181036000830152612b8681612b4a565b9050919050565b7f4e487b7100000000000000000000000000000000000000000000000000000000600052601260045260246000fd5b6000612bc782611c56565b9150612bd283611c56565b925082612be257612be1612b8d565b5b828204905092915050565b6000612bf882611c56565b9150612c0383611c56565b925082612c1357612c12612b8d565b5b828206905092915050565b7f4e487b7100000000000000000000000000000000000000000000000000000000600052603260045260246000fd5b600081519050919050565b600082825260208201905092915050565b6000612c7482612c4d565b612c7e8185612c58565b9350612c8e818560208601611cfb565b612c9781611d2e565b840191505092915050565b6000608082019050612cb76000830187611df9565b612cc46020830186611df9565b612cd16040830185611f0f565b8181036060830152612ce38184612c69565b905095945050505050565b600081519050612cfd81611bc7565b92915050565b600060208284031215612d1957612d18611b91565b5b6000612d2784828501612cee565b91505092915050565b7f4552433732313a206d696e7420746f20746865207a65726f2061646472657373600082015250565b6000612d66602083611cea565b9150612d7182612d30565b602082019050919050565b60006020820190508181036000830152612d9581612d59565b9050919050565b7f4552433732313a20746f6b656e20616c7265616479206d696e74656400000000600082015250565b6000612dd2601c83611cea565b9150612ddd82612d9c565b602082019050919050565b60006020820190508181036000830152612e0181612dc5565b905091905056fea2646970667358221220a4a448820374c4bc21a23648041fdd71c1b736f70b2df813c334f13a2b52844164736f6c634300080d0033",
  "immutableReferences": {},
  "source": "pragma solidity ^0.8.1;\r\nimport \"../node_modules/@OpenZeppelin/contracts/token/ERC721/ERC721.sol\";\r\nimport \"../node_modules/@OpenZeppelin/contracts/access/Ownable.sol\";\r\ncontract  Token is ERC721, Ownable{\r\n    //variables\r\n    struct Pet {\r\n        uint damage; // 0-255 demical 8bit\r\n        uint magic;\r\n        uint lastMeal; //256 bit => 2^256-1\r\n        uint endurance; // 24 hours\r\n    }\r\n    uint256 nextId = 0;\r\n\r\n    //mapping\r\n\r\n    mapping(uint256 => Pet) private _tokenDetails;\r\n\r\n    //event\r\n\r\n\r\n    //modifier\r\n\r\n\r\n    //constructor\r\n\r\n    constructor(string memory name, string memory symbol) ERC721(name, symbol){\r\n\r\n    }\r\n\r\n    //function\r\n    function getTokenDetails(uint256 tokenId) public view returns(Pet memory){\r\n        return _tokenDetails[tokenId];\r\n\r\n    }\r\n\r\n    function mint(uint damage, uint magic, uint256 endurance) public onlyOwner{\r\n        _tokenDetails[nextId] = Pet(damage, magic, block.timestamp, endurance); //set the token before\r\n            _safeMint(msg.sender, nextId); // try get the pet from the token => save mint\r\n        nextId++;\r\n    }\r\n\r\n    function feed(uint256 tokenId) public {\r\n        Pet storage pet = _tokenDetails[nextId];\r\n        require(pet.lastMeal + pet.endurance > block.timestamp);\r\n        pet.lastMeal = block.timestamp;\r\n    }\r\n\r\n    function _beforeTokenTransfer(address from, address to, uint256 tokenId) internal override {\r\n        Pet storage pet = _tokenDetails[nextId];\r\n        require(pet.lastMeal + pet.endurance > block.timestamp); // Pet still alive, if dont have this requre, there are many dead token will be tranfered\r\n\r\n    }\r\n\r\n\r\n\r\n\r\n}",
  "sourcePath": "L:\\linh\\Github\\Blockchain\\nft-game\\contracts\\token.sol",
  "compiler": {
    "name": "solc",
    "version": "0.8.13+commit.abaa5c0e.Emscripten.clang"
  },
  "schemaVersion": "3.4.7",
  "updatedAt": "2022-05-14T11:27:11.297Z",
  "networkType": "ethereum",
  "devdoc": {
    "kind": "dev",
    "methods": {
      "approve(address,uint256)": {
        "details": "See {IERC721-approve}."
      },
      "balanceOf(address)": {
        "details": "See {IERC721-balanceOf}."
      },
      "getApproved(uint256)": {
        "details": "See {IERC721-getApproved}."
      },
      "isApprovedForAll(address,address)": {
        "details": "See {IERC721-isApprovedForAll}."
      },
      "name()": {
        "details": "See {IERC721Metadata-name}."
      },
      "owner()": {
        "details": "Returns the address of the current owner."
      },
      "ownerOf(uint256)": {
        "details": "See {IERC721-ownerOf}."
      },
      "renounceOwnership()": {
        "details": "Leaves the contract without owner. It will not be possible to call `onlyOwner` functions anymore. Can only be called by the current owner. NOTE: Renouncing ownership will leave the contract without an owner, thereby removing any functionality that is only available to the owner."
      },
      "safeTransferFrom(address,address,uint256)": {
        "details": "See {IERC721-safeTransferFrom}."
      },
      "safeTransferFrom(address,address,uint256,bytes)": {
        "details": "See {IERC721-safeTransferFrom}."
      },
      "setApprovalForAll(address,bool)": {
        "details": "See {IERC721-setApprovalForAll}."
      },
      "supportsInterface(bytes4)": {
        "details": "See {IERC165-supportsInterface}."
      },
      "symbol()": {
        "details": "See {IERC721Metadata-symbol}."
      },
      "tokenURI(uint256)": {
        "details": "See {IERC721Metadata-tokenURI}."
      },
      "transferFrom(address,address,uint256)": {
        "details": "See {IERC721-transferFrom}."
      },
      "transferOwnership(address)": {
        "details": "Transfers ownership of the contract to a new account (`newOwner`). Can only be called by the current owner."
      }
    },
    "version": 1
  },
  "userdoc": {
    "kind": "user",
    "methods": {},
    "version": 1
  }
}